:0300000002009764
:03000B00020030C0
:10003000E546B4FA13754600E5905401B4010FC2C9
:100040009012029212029932054612029932D2900F
:070050001202821202993234
:03001B0002008060
:10008000D2B0E546B4280A7546001201A31202A9AF
:100090003205461202A93275408075414075440010
:1000A00075A0FF7590FF740075B0FF754700754629
:1000B0000075550075510075520075530075540058
:1000C000C2B0C2B1C2B2C290C3D2B1859042534253
:1000D00040E5428540F0B5F0131201DD85904353B1
:1000E0004320E5438541F0B5F05A80DCE542B44059
:1000F000088542401201DD80CFE555B4000FE5517F
:1001000004F551B40A0575510080E680E4E555B464
:10011000010FE55204F552B40A0575520080D280F1
:10012000D0E555B4020FE553B4010575530080C105
:1001300075530180BCE554B4010575540080B27557
:10014000540180ADE543B420088543411201DD012F
:10015000C8E555B4030CE554B4000575550080E9B5
:100160008007E55504F55580E0E55275F00AA425B1
:1001700051F544E55375F064A42544F544C29075E7
:100180004600C28C1201A31202A9C38544F0E550B7
:10019000B5F00CC31201B81201CA12022380EB4061
:1001A000F24145C2B61202B9D2B62097FDC2B712CB
:1001B00002B985A050D2B72275F06484F532E5F01B
:1001C00075F00A84F53185F030229002CBE530934A
:0C01D000F533E53193F534E53293F53555
:1001DC00229002CBE55193F580D2941202B9539040
:1001EC00E19002CBE55293F580D2931202B9539071
:1001FC00E19002CBE55393F580D2921202B9539061
:10020C00E19002CBE55493F580D2911202B9539050
:10021C00E122754600217D853380D2941202B953B8
:10022C0090E1853480D2931202B95390E1853580E8
:10023C00D2921202B95390E122C28EC2B0D2901265
:10024C000282754600120299859043534320E54380
:10025C00B4200280F3C2B61202B9D2B62097FDC206
:10026C00B71202B9E5A0D2B78544F0D2B2B5F0020C
:10027C0080D6409E80D27580BFD2947580BFD293B9
:10028C007580BFD29222C294C293C29222D2AFD2B4
:10029C00A9758901758CF0758A60D28C22D2AFD287
:1002AC00AB758910758D63758BC0D28E227F0ADF7A
:1002BC00FE227A0E7BFA7CFADCFEDBFADAF622C03E
:0902CC00F9A4B0999282F8809027
:00000001FF
