:0A0AEF00C0F9A4B0999282F880903B
:030AF900011800E1
:03000B00020A489E
:100A4800C0E0C0F0C083C082C0D075D000C000C074
:100A580001C002C003C004C005C006C007758C00F1
:100A6800758A000518E518648C7007F518120ADEF7
:100A78008F19D007D006D005D004D003D002D001FA
:0D0A8800D000D0D0D082D083D0F0D0E032AA
:10098200E4F508F509750A50120ADE8F195389F049
:10099200438901E4F58CF58AD2A9D2AFD28C209694
:1009A200053096FD050AAF0A1209F22095F0D28CA5
:1009B200E519C3950A5007AF191209F2C290E51959
:1009C200C3950A40E9C28C120ABD7F107E27120A23
:1009D2009DD2902095053095FD0509D3E509940037
:1009E2007480948040DF120ADE8F19E4F50980BE1C
:100ABD00C291D2927580BF120A99C292D29375805B
:100ACD00BF120A99C293D2947580BF120A99C2942B
:010ADD0022F6
:0209F2008F0B69
:1009F400780C7C007D007BFF7A0A79EF7E007F0A09
:100A04001208D0C291E50B75F06484FFE50B75F014
:100A14006484E5F075F00A84F516E50B75F00A8434
:100A240085F017D292740C2F120A95C292D2937445
:100A34000C2516120A95C293D294740C2517120A27
:030A440095C294C4
:010A4700228C
:100ADE00C2B6D2B62097FDC2B7120A99AFA0D2B74E
:010AEE0022E5
:080A9500F8E6F5807FFA7E000F
:100A9D00E4FDFCC3ED9FEC9E5015E4FBFA0BBB008F
:0F0AAD00010AEB64024A70F50DBD00010C80E4F4
:010ABC002217
:030000000208F6FD
:0C08F600787FE4F6D8FD75811902093DF9
:10080000E709F608DFFA8046E709F208DFFA803EDA
:1008100088828C83E709F0A3DFFA8032E309F608C7
:10082000DFFA8078E309F208DFFA807088828C832F
:10083000E309F0A3DFFA806489828A83E0A3F608E3
:10084000DFFA805889828A83E0A3F208DFFA804CBD
:1008500080D280FA80C680D4806980F28033801094
:1008600080A680EA809A80A880DA80E280CA8033FD
:1008700089828A83ECFAE493A3C8C582C8CCC58375
:10088000CCF0A3C8C582C8CCC583CCDFE9DEE78045
:100890000D89828A83E493A3F608DFF9ECFAA9F0C4
:1008A000EDFB2289828A83ECFAE0A3C8C582C8CC1A
:1008B000C583CCF0A3C8C582C8CCC583CCDFEADE33
:1008C000E880DB89828A83E493A3F208DFF980CC95
:1008D00088F0EF60010E4E60C388F0ED2402B4048E
:1008E0000050B9F582EB2402B4040050AF23234535
:0608F00082239008507302
:10090200020982E493A3F8E493A34003F68001F280
:1009120008DFF48029E493A3F85407240CC8C333F6
:10092200C4540F4420C8834004F456800146F6DFC5
:10093200E4800B0102040810204080900AF9E47E52
:10094200019360BCA3FF543F30E509541FFEE493BA
:10095200A360010ECF54C025E060A840B8E493A381
:10096200FAE493A3F8E493A3C8C582C8CAC583CAAC
:10097200F0A3C8C582C8CAC583CADFE9DEE780BE64
:010AFC0000F9
:00000001FF
